{"abi":[{"type":"constructor","inputs":[],"stateMutability":"nonpayable"},{"type":"receive","stateMutability":"payable"},{"type":"function","name":"onMorphoFlashLoan","inputs":[{"name":"assets","type":"uint256","internalType":"uint256"},{"name":"","type":"bytes","internalType":"bytes"}],"outputs":[],"stateMutability":"nonpayable"},{"type":"function","name":"owner","inputs":[],"outputs":[{"name":"","type":"address","internalType":"address"}],"stateMutability":"view"},{"type":"function","name":"rescue","inputs":[{"name":"token","type":"address","internalType":"address"}],"outputs":[],"stateMutability":"nonpayable"},{"type":"function","name":"snipe","inputs":[{"name":"token","type":"address","internalType":"address"},{"name":"locker","type":"address","internalType":"address"},{"name":"flashAmount","type":"uint256","internalType":"uint256"},{"name":"swapData","type":"bytes","internalType":"bytes"}],"outputs":[],"stateMutability":"nonpayable"},{"type":"function","name":"triggerCollection","inputs":[{"name":"locker","type":"address","internalType":"address"},{"name":"token","type":"address","internalType":"address"}],"outputs":[],"stateMutability":"nonpayable"},{"type":"function","name":"unlockCallback","inputs":[{"name":"data","type":"bytes","internalType":"bytes"}],"outputs":[{"name":"","type":"bytes","internalType":"bytes"}],"stateMutability":"nonpayable"}],"bytecode":{"object":"0x60a0604052348015600e575f80fd5b5033608052608051610fed61004d5f395f818160f101528181610167015281816102f7015281816103fe01528181610820015261089c0152610fed5ff3fe608060405260043610610057575f3560e01c80630673185a1461006257806331f570721461008357806359348e86146100a2578063839006f2146100c15780638da5cb5b146100e057806391dd734614610130575f80fd5b3661005e57005b5f80fd5b34801561006d575f80fd5b5061008161007c366004610aee565b61015c565b005b34801561008e575f80fd5b5061008161009d366004610b5c565b61048c565b3480156100ad575f80fd5b506100816100bc366004610ba4565b6107bb565b3480156100cc575f80fd5b506100816100db366004610bdb565b610815565b3480156100eb575f80fd5b506101137f000000000000000000000000000000000000000000000000000000000000000081565b6040516001600160a01b0390911681526020015b60405180910390f35b34801561013b575f80fd5b5061014f61014a366004610bfd565b610976565b6040516101279190610c3c565b336001600160a01b037f000000000000000000000000000000000000000000000000000000000000000016146101c25760405162461bcd60e51b815260206004820152600660248201526510b7bbb732b960d11b60448201526064015b60405180910390fd5b84848484846040516020016101db959493929190610c71565b6040516020818303038152906040525f90816101f79190610d59565b5060405163701195a160e11b81526006602160991b01600482015260248101849052606060448201525f606482015273bbbbbbbbbb9cc5e90e3b3af64bdaf62c37eeffcb9063e0232b42906084015f604051808303815f87803b15801561025c575f80fd5b505af115801561026e573d5f803e3d5ffd5b50506040516370a0823160e01b81523060048201525f92506006602160991b0191506370a0823190602401602060405180830381865afa1580156102b4573d5f803e3d5ffd5b505050506040513d601f19601f820116820180604052508101906102d89190610e14565b905080156103775760405163a9059cbb60e01b81526001600160a01b037f0000000000000000000000000000000000000000000000000000000000000000166004820152602481018290526006602160991b019063a9059cbb906044016020604051808303815f875af1158015610351573d5f803e3d5ffd5b505050506040513d601f19601f820116820180604052508101906103759190610e2b565b505b6040516370a0823160e01b81523060048201525f906001600160a01b038816906370a0823190602401602060405180830381865afa1580156103bb573d5f803e3d5ffd5b505050506040513d601f19601f820116820180604052508101906103df9190610e14565b905080156104795760405163a9059cbb60e01b81526001600160a01b037f0000000000000000000000000000000000000000000000000000000000000000811660048301526024820183905288169063a9059cbb906044016020604051808303815f875af1158015610453573d5f803e3d5ffd5b505050506040513d601f19601f820116820180604052508101906104779190610e2b565b505b6104835f80610a43565b50505050505050565b3373bbbbbbbbbb9cc5e90e3b3af64bdaf62c37eeffcb146104d95760405162461bcd60e51b8152602060048201526007602482015266216d6f7270686f60c81b60448201526064016101b9565b5f805f805f80546104e990610cd5565b80601f016020809104026020016040519081016040528092919081815260200182805461051590610cd5565b80156105605780601f1061053757610100808354040283529160200191610560565b820191905f5260205f20905b81548152906001019060200180831161054357829003601f168201915b50505050508060200190518101906105789190610ed5565b60405163095ea7b360e01b815273498581ff718922c3f8e6a244956af099b2652b2b60048201525f196024820152939750919550935091506006602160991b019063095ea7b3906044016020604051808303815f875af11580156105de573d5f803e3d5ffd5b505050506040513d601f19601f820116820180604052508101906106029190610e2b565b5060405163095ea7b360e01b815273498581ff718922c3f8e6a244956af099b2652b2b60048201525f1960248201526001600160a01b0385169063095ea7b3906044016020604051808303815f875af1158015610661573d5f803e3d5ffd5b505050506040513d601f19601f820116820180604052508101906106859190610e2b565b50604080516001600160a01b03868116602083015285168183015260608082018590528251808303909101815260808201928390526348c8949160e01b90925273498581ff718922c3f8e6a244956af099b2652b2b916348c89491916106ee9190608401610c3c565b5f604051808303815f875af1158015610709573d5f803e3d5ffd5b505050506040513d5f823e601f3d908101601f191682016040526107309190810190610f3f565b5060405163a9059cbb60e01b815273bbbbbbbbbb9cc5e90e3b3af64bdaf62c37eeffcb6004820152602481018890526006602160991b019063a9059cbb906044016020604051808303815f875af115801561078d573d5f803e3d5ffd5b505050506040513d601f19601f820116820180604052508101906107b19190610e2b565b5050505050505050565b6040516305763dbd60e41b81526001600160a01b038281166004830152831690635763dbd0906024015f604051808303815f87803b1580156107fb575f80fd5b505af115801561080d573d5f803e3d5ffd5b505050505050565b336001600160a01b037f000000000000000000000000000000000000000000000000000000000000000016146108765760405162461bcd60e51b815260206004820152600660248201526510b7bbb732b960d11b60448201526064016101b9565b6040516370a0823160e01b81523060048201526001600160a01b0382169063a9059cbb907f00000000000000000000000000000000000000000000000000000000000000009083906370a0823190602401602060405180830381865afa1580156108e2573d5f803e3d5ffd5b505050506040513d601f19601f820116820180604052508101906109069190610e14565b6040516001600160e01b031960e085901b1681526001600160a01b03909216600483015260248201526044016020604051808303815f875af115801561094e573d5f803e3d5ffd5b505050506040513d601f19601f820116820180604052508101906109729190610e2b565b5050565b60603373498581ff718922c3f8e6a244956af099b2652b2b146109c15760405162461bcd60e51b815260206004820152600360248201526221706d60e81b60448201526064016101b9565b5f80806109d085870187610f79565b6040516305763dbd60e41b81526001600160a01b038085166004830152939650919450925090831690635763dbd0906024015f604051808303815f87803b158015610a19575f80fd5b505af1925050508015610a2a575060015b50505060408051602081019091525f8152949350505050565b508054610a4f90610cd5565b5f825580601f10610a5e575050565b601f0160209004905f5260205f2090810190610a7a9190610a7d565b50565b5b80821115610a91575f8155600101610a7e565b5090565b6001600160a01b0381168114610a7a575f80fd5b5f8083601f840112610ab9575f80fd5b50813567ffffffffffffffff811115610ad0575f80fd5b602083019150836020828501011115610ae7575f80fd5b9250929050565b5f805f805f60808688031215610b02575f80fd5b8535610b0d81610a95565b94506020860135610b1d81610a95565b935060408601359250606086013567ffffffffffffffff811115610b3f575f80fd5b610b4b88828901610aa9565b969995985093965092949392505050565b5f805f60408486031215610b6e575f80fd5b83359250602084013567ffffffffffffffff811115610b8b575f80fd5b610b9786828701610aa9565b9497909650939450505050565b5f8060408385031215610bb5575f80fd5b8235610bc081610a95565b91506020830135610bd081610a95565b809150509250929050565b5f60208284031215610beb575f80fd5b8135610bf681610a95565b9392505050565b5f8060208385031215610c0e575f80fd5b823567ffffffffffffffff811115610c24575f80fd5b610c3085828601610aa9565b90969095509350505050565b602081525f82518060208401528060208501604085015e5f604082850101526040601f19601f83011684010191505092915050565b6001600160a01b03868116825285166020820152604081018490526080606082018190528101829052818360a08301375f81830160a090810191909152601f909201601f19160101949350505050565b634e487b7160e01b5f52604160045260245ffd5b600181811c90821680610ce957607f821691505b602082108103610d0757634e487b7160e01b5f52602260045260245ffd5b50919050565b601f821115610d5457805f5260205f20601f840160051c81016020851015610d325750805b601f840160051c820191505b81811015610d51575f8155600101610d3e565b50505b505050565b815167ffffffffffffffff811115610d7357610d73610cc1565b610d8781610d818454610cd5565b84610d0d565b6020601f821160018114610db9575f8315610da25750848201515b5f19600385901b1c1916600184901b178455610d51565b5f84815260208120601f198516915b82811015610de85787850151825560209485019460019092019101610dc8565b5084821015610e0557868401515f19600387901b60f8161c191681555b50505050600190811b01905550565b5f60208284031215610e24575f80fd5b5051919050565b5f60208284031215610e3b575f80fd5b81518015158114610bf6575f80fd5b5f82601f830112610e59575f80fd5b815167ffffffffffffffff811115610e7357610e73610cc1565b604051601f8201601f19908116603f0116810167ffffffffffffffff81118282101715610ea257610ea2610cc1565b604052818152838201602001851015610eb9575f80fd5b8160208501602083015e5f918101602001919091529392505050565b5f805f8060808587031215610ee8575f80fd5b8451610ef381610a95565b6020860151909450610f0481610a95565b60408601516060870151919450925067ffffffffffffffff811115610f27575f80fd5b610f3387828801610e4a565b91505092959194509250565b5f60208284031215610f4f575f80fd5b815167ffffffffffffffff811115610f65575f80fd5b610f7184828501610e4a565b949350505050565b5f805f60608486031215610f8b575f80fd5b8335610f9681610a95565b92506020840135610fa681610a95565b92959294505050604091909101359056fea2646970667358221220e246eb953a586d118f4f11ff6d6be5ab34ec891802629811718c6157e0becf9f64736f6c634300081a0033","linkReferences":{}},"methodIdentifiers":{"onMorphoFlashLoan(uint256,bytes)":"31f57072","owner()":"8da5cb5b","rescue(address)":"839006f2","snipe(address,address,uint256,bytes)":"0673185a","triggerCollection(address,address)":"59348e86","unlockCallback(bytes)":"91dd7346"},"id":19}